:100000000C9434000C9451000C9451000C94510049
:100010000C9451000C9451000C9451000C9451001C
:100020000C9451000C9451000C9451000C9451000C
:100030000C9451000C9451000C9451000C945100FC
:100040000C9451000C9451000C9451000C945100EC
:100050000C9451000C9451000C9451000C945100DC
:100060000C9451000C94510011241FBECFEFD8E026
:10007000DEBFCDBF11E0A0E0B1E0EEE9F7E002C0E5
:1000800005900D92A634B107D9F711E0A6E4B1E0CE
:1000900001C01D92A834B107E1F70E9453000C94EF
:1000A000CD030C9400002F923F924F925F926F927B
:1000B0007F928F929F92AF92BF92CF92DF92EF92F8
:1000C000FF920F931F93DF93CF93CDB7DEB729979E
:1000D0000FB6F894DEBF0FBECDBF81E3898382E304
:1000E0008A8383E38B8384E38C830E9409024E011D
:1000F0000894811C911C22242A94E8ECCE2ED12C49
:1001000075E0A72EB12CAC0EBD1E68E0662E54E043
:10011000752E40E4342E30E1532E22E0422EC401ED
:100120000E940B03019709F019C10E94490227B8E8
:1001300080E061E040E051E00E942F0280EC0E94EC
:10014000C9010E945402182F0E94E901113321F4C1
:1001500088B191E0892704C0123321F488B1842545
:1001600088B9E6CF133319F488B18725F9CF143352
:1001700019F488B18625F4CF153319F488B1852593
:10018000EFCF163319F488B18325EACF173319F46A
:1001900085B1872504C0183321F485B1862585B93A
:1001A000C7CF193391F50E9449020E94CE020E94E6
:1001B000090284ED0E94C9018CE091E00E942302B3
:1001C00085E00E94D6026CEE71E04EED51E024E134
:1001D00030E003E210E00E94F202B5014AE050E094
:1001E0000E949C03C5010E94230283E191E00E94CA
:1001F000230288EA91E6F6013197F1F70197D9F7E2
:100200000E9449020E94090293CF1A3209F073C07A
:1002100088B1082F10E0169507951695079501707F
:100220001070439B02C00F5F1F4F449B02C00F5FC3
:100230001F4F88B1E82EFF2486E0F694E7948A9554
:10024000E1F781E0E822FF242B9B03C00894E11C26
:10025000F11C2A9B03C00894E11CF11C0E94490276
:100260008CE60E94E90189E60E94E90187E60E9486
:10027000E90188E60E94E90184E70E94E9018FE62E
:100280000E94E9018EE60E94E9018AE30E94E901E9
:10029000802F805D0E94E90188EA91E6F60131979E
:1002A000F1F70197D9F70E94490286E60E94E90119
:1002B00081E60E94E9018EE60E94E9018FE60E9434
:1002C000E9018EE60E94E9018AE30E94E9018E2D90
:1002D000805D0E94E90188EA91E6F6013197F1F725
:1002E0000197D9F70E94490280E061E040E051E0C7
:1002F0000E942F021DCF103329F5C4010E940B0369
:10030000019709F015CF0E9449020E94090286E177
:1003100091E00E9423020E94540289830E94E90115
:100320000E9454028A830E94E9010E9454028B8336
:100330000E94E9010E9454028C830E94E9010E94FC
:100340004902F6CE133209F0F3CE18B818B818B82F
:1003500018B818B818B815B815B8E1CE80E090E014
:1003600029960FB6F894DEBF0FBECDBFCF91DF91B7
:100370001F910F91FF90EF90DF90CF90BF90AF90C3
:100380009F908F907F906F905F904F903F902F90B5
:10039000089595B1282F207F9F70292B25B9289883
:1003A000299A22E0922F9A95F1F72998E0E9F1E055
:1003B0003197F1F795B18295807F9F70982B95B911
:1003C000299A2A95F1F7299880EA9FE00197F1F799
:1003D000089595B1282F207F9F70292B25B9289A41
:1003E000299A22E0922F9A95F1F72998E0E9F1E015
:1003F0003197F1F795B18295807F9F70982B95B9D1
:10040000299A2A95F1F7299880EA9FE00197F1F758
:1004100008958FEF84B980E49CE90197F1F782E0B9
:100420000E94C90188E20E94C9018CE00E94C901B2
:1004300086E00E94C90181E00E94C90180EA9FE034
:100440000197F1F70895CF93DF93EC0102C00E946A
:10045000E90189918823D9F7DF91CF910895CF934E
:10046000DF93EA01882331F460316CF46F70862FDA
:10047000806807C0813039F460312CF46F70862FAA
:10048000806C0E94C901CE010E942302DF91CF91AE
:10049000089581E00E94C90180EA9FE00197F1F789
:1004A00080E80E94C90108950F931F9300EF1FEF8A
:1004B00040E45CE928EC30E0BFEEAFED7FEB6FE7A6
:1004C0000AB91BB98BB18F708BB989B18F708F301E
:1004D000C9F7CA010197F1F789B18F708F30C9F35D
:1004E00080E991E0F9013197F1F70197D9F789B1E6
:1004F0008F708F3071F3BBB989B18F708F3029F055
:1005000080934601109247011DC0ABB989B18F702D
:100510008F3021F08093460181E012C07BB989B110
:100520008F708F3021F08093460182E009C06BB953
:1005300089B18F708F3009F4C3CF8093460183E077
:1005400080934701809146018E3019F4E091470174
:100550001AC08D3059F4E0914701F0E0EE0FFF1F13
:10056000EE0FFF1FEB5CFE4F818115C0E09147014C
:100570008B3049F4F0E0EE0FFF1FEE0FFF1FE95C38
:10058000FE4F808108C0F0E0EE0FFF1FEE0FFF1F4F
:10059000EB5CFE4F83811F910F9108953D9887E892
:1005A00080937A0080E480937C00089590917C0091
:1005B0008F70892B80937C0080917A008064809377
:1005C0007A0080917A0084FFFCCF8AE18A95F1F766
:1005D0009091780080917900382F20E0290F311D0B
:1005E000C90108950F931F93021B130B861B970BD2
:1005F000461B570BBC01069FC001079F900D169F1D
:10060000900D1124BA010E947503620F731FCB0174
:100610001F910F910895AF92BF92CF92DF92EF9208
:10062000FF921F93CF93DF937C010E9449020E94A7
:10063000090248ECA42EB12C80E291E00E94230232
:10064000CC24DD24C0E0D0E00E945402182F0E9488
:10065000E901209729F4F7018081181749F421C096
:10066000C130D10529F4F7018181181739F419C077
:10067000C230D10519F4F701828105C0C330D1051C
:1006800049F4F7018381181729F40BC00E94540222
:100690000E94E9012196C430D105C4F331E0C32E94
:1006A000D12C2196C430D1057CF2F1E0CF16D104D3
:1006B00081F40E9449028BE291E00E94230288EAC1
:1006C00091E6F5013197F1F70197D9F70E944902B8
:1006D000B3CF81E090E0DF91CF911F91FF90EF9039
:1006E000DF90CF90BF90AF90089597FB092E07261B
:1006F0000AD077FD04D00CD006D000201AF47095F3
:1007000061957F4F0895F6F7909581959F4F0895D5
:10071000AA1BBB1B51E107C0AA1FBB1FA617B70727
:1007200010F0A61BB70B881F991F5A95A9F7809543
:100730009095BC01CD010895FB019F01E8944230E2
:10074000C4F04532B4F44A3029F497FB1EF4909576
:1007500081959F4F642F77270E948803805D8A339D
:100760000CF0895D8193CB010097A1F716F45DE24F
:1007700051931082C9010C94BD03DC01FC01672F69
:1007800071917723E1F7329704C07C916D93708368
:0E0790006291AE17BF07C8F30895F894FFCF2B
:10079E0050726573732061206B65790054454D501E
:1007AE003A200020200052657365747077643A0019
:1007BE00456E746572207077643A0057726F6E677B
:1007CE002070776400373839373435363431323368
:0607DE00312A30232A003D
:00000001FF
